{
  "_format": "hh-sol-artifact-1",
  "contractName": "LendingPoolV2",
  "sourceName": "contracts/LendingPoolV2.sol",
  "abi": [
    {
      "anonymous": false,
      "inputs": [
        {
          "indexed": false,
          "internalType": "address",
          "name": "user",
          "type": "address"
        },
        {
          "indexed": false,
          "internalType": "uint256",
          "name": "amountBorrow",
          "type": "uint256"
        },
        {
          "indexed": false,
          "internalType": "uint8",
          "name": "index",
          "type": "uint8"
        },
        {
          "indexed": false,
          "internalType": "uint256",
          "name": "timestamp",
          "type": "uint256"
        }
      ],
      "name": "Borrow",
      "type": "event"
    },
    {
      "anonymous": false,
      "inputs": [
        {
          "indexed": false,
          "internalType": "address",
          "name": "user",
          "type": "address"
        },
        {
          "indexed": false,
          "internalType": "uint256",
          "name": "amountSupply",
          "type": "uint256"
        },
        {
          "indexed": false,
          "internalType": "uint256",
          "name": "timestamp",
          "type": "uint256"
        }
      ],
      "name": "Deposit",
      "type": "event"
    },
    {
      "anonymous": false,
      "inputs": [
        {
          "indexed": false,
          "internalType": "address",
          "name": "liquidateUser",
          "type": "address"
        },
        {
          "indexed": false,
          "internalType": "address",
          "name": "debtUser",
          "type": "address"
        },
        {
          "indexed": false,
          "internalType": "uint256",
          "name": "amount",
          "type": "uint256"
        },
        {
          "indexed": false,
          "internalType": "uint256",
          "name": "timestamp",
          "type": "uint256"
        }
      ],
      "name": "Liquidate",
      "type": "event"
    },
    {
      "anonymous": false,
      "inputs": [
        {
          "indexed": false,
          "internalType": "address",
          "name": "user",
          "type": "address"
        },
        {
          "indexed": false,
          "internalType": "uint256",
          "name": "amountRepay",
          "type": "uint256"
        },
        {
          "indexed": false,
          "internalType": "uint256",
          "name": "collateralRepay",
          "type": "uint256"
        },
        {
          "indexed": false,
          "internalType": "uint256",
          "name": "timestamp",
          "type": "uint256"
        }
      ],
      "name": "Repay",
      "type": "event"
    },
    {
      "anonymous": false,
      "inputs": [
        {
          "indexed": false,
          "internalType": "address",
          "name": "user",
          "type": "address"
        },
        {
          "indexed": false,
          "internalType": "uint256",
          "name": "amountToWithdraw",
          "type": "uint256"
        },
        {
          "indexed": false,
          "internalType": "uint256",
          "name": "timestamp",
          "type": "uint256"
        }
      ],
      "name": "Withdraw",
      "type": "event"
    },
    {
      "inputs": [],
      "name": "CLOSE_FACTOR",
      "outputs": [
        {
          "internalType": "uint256",
          "name": "",
          "type": "uint256"
        }
      ],
      "stateMutability": "view",
      "type": "function"
    },
    {
      "inputs": [],
      "name": "DEPOSIT_RATE",
      "outputs": [
        {
          "internalType": "uint256",
          "name": "",
          "type": "uint256"
        }
      ],
      "stateMutability": "view",
      "type": "function"
    },
    {
      "inputs": [],
      "name": "DEPOSIT_TIME",
      "outputs": [
        {
          "internalType": "uint256",
          "name": "",
          "type": "uint256"
        }
      ],
      "stateMutability": "view",
      "type": "function"
    },
    {
      "inputs": [],
      "name": "LIQUITATION_SPREAD",
      "outputs": [
        {
          "internalType": "uint256",
          "name": "",
          "type": "uint256"
        }
      ],
      "stateMutability": "view",
      "type": "function"
    },
    {
      "inputs": [
        {
          "internalType": "uint256",
          "name": "_loanToValue",
          "type": "uint256"
        },
        {
          "internalType": "uint256",
          "name": "_liquidationThreshold",
          "type": "uint256"
        },
        {
          "internalType": "uint256",
          "name": "_interestRate",
          "type": "uint256"
        }
      ],
      "name": "addLoan",
      "outputs": [],
      "stateMutability": "nonpayable",
      "type": "function"
    },
    {
      "inputs": [
        {
          "internalType": "uint256",
          "name": "amount",
          "type": "uint256"
        },
        {
          "internalType": "uint8",
          "name": "index",
          "type": "uint8"
        }
      ],
      "name": "borrow",
      "outputs": [
        {
          "internalType": "uint256",
          "name": "",
          "type": "uint256"
        }
      ],
      "stateMutability": "payable",
      "type": "function"
    },
    {
      "inputs": [
        {
          "internalType": "address",
          "name": "",
          "type": "address"
        }
      ],
      "name": "borrowAmounts",
      "outputs": [
        {
          "internalType": "uint256",
          "name": "",
          "type": "uint256"
        }
      ],
      "stateMutability": "view",
      "type": "function"
    },
    {
      "inputs": [
        {
          "internalType": "address",
          "name": "",
          "type": "address"
        }
      ],
      "name": "collaterals",
      "outputs": [
        {
          "internalType": "uint256",
          "name": "",
          "type": "uint256"
        }
      ],
      "stateMutability": "view",
      "type": "function"
    },
    {
      "inputs": [
        {
          "internalType": "uint256",
          "name": "amount",
          "type": "uint256"
        }
      ],
      "name": "deposit",
      "outputs": [],
      "stateMutability": "payable",
      "type": "function"
    },
    {
      "inputs": [
        {
          "internalType": "address",
          "name": "user",
          "type": "address"
        }
      ],
      "name": "getBorrowAmount",
      "outputs": [
        {
          "internalType": "uint256",
          "name": "",
          "type": "uint256"
        }
      ],
      "stateMutability": "view",
      "type": "function"
    },
    {
      "inputs": [
        {
          "internalType": "address",
          "name": "user",
          "type": "address"
        }
      ],
      "name": "getCollateral",
      "outputs": [
        {
          "internalType": "uint256",
          "name": "",
          "type": "uint256"
        }
      ],
      "stateMutability": "view",
      "type": "function"
    },
    {
      "inputs": [],
      "name": "getEthUSDPrice",
      "outputs": [
        {
          "internalType": "uint256",
          "name": "",
          "type": "uint256"
        }
      ],
      "stateMutability": "view",
      "type": "function"
    },
    {
      "inputs": [
        {
          "internalType": "address",
          "name": "user",
          "type": "address"
        }
      ],
      "name": "getHealthFactor",
      "outputs": [
        {
          "internalType": "uint256",
          "name": "",
          "type": "uint256"
        }
      ],
      "stateMutability": "nonpayable",
      "type": "function"
    },
    {
      "inputs": [
        {
          "internalType": "address",
          "name": "user",
          "type": "address"
        }
      ],
      "name": "getHealthFactor2",
      "outputs": [
        {
          "internalType": "uint256",
          "name": "",
          "type": "uint256"
        }
      ],
      "stateMutability": "nonpayable",
      "type": "function"
    },
    {
      "inputs": [
        {
          "internalType": "address",
          "name": "user",
          "type": "address"
        }
      ],
      "name": "getSupply",
      "outputs": [
        {
          "internalType": "uint256",
          "name": "",
          "type": "uint256"
        }
      ],
      "stateMutability": "view",
      "type": "function"
    },
    {
      "inputs": [],
      "name": "getTotalBorrow",
      "outputs": [
        {
          "internalType": "uint256",
          "name": "",
          "type": "uint256"
        }
      ],
      "stateMutability": "view",
      "type": "function"
    },
    {
      "inputs": [],
      "name": "getTotalDeposit",
      "outputs": [
        {
          "internalType": "uint256",
          "name": "",
          "type": "uint256"
        }
      ],
      "stateMutability": "view",
      "type": "function"
    },
    {
      "inputs": [
        {
          "internalType": "address",
          "name": "user",
          "type": "address"
        }
      ],
      "name": "liquidateCall",
      "outputs": [],
      "stateMutability": "payable",
      "type": "function"
    },
    {
      "inputs": [
        {
          "internalType": "address",
          "name": "",
          "type": "address"
        }
      ],
      "name": "loan_to_user",
      "outputs": [
        {
          "internalType": "uint8",
          "name": "",
          "type": "uint8"
        }
      ],
      "stateMutability": "view",
      "type": "function"
    },
    {
      "inputs": [
        {
          "internalType": "uint256",
          "name": "",
          "type": "uint256"
        }
      ],
      "name": "loans",
      "outputs": [
        {
          "internalType": "uint256",
          "name": "LTV",
          "type": "uint256"
        },
        {
          "internalType": "uint256",
          "name": "liquid_Thres",
          "type": "uint256"
        },
        {
          "internalType": "uint256",
          "name": "interest_rate",
          "type": "uint256"
        }
      ],
      "stateMutability": "view",
      "type": "function"
    },
    {
      "inputs": [],
      "name": "oracle",
      "outputs": [
        {
          "internalType": "contract PriceConsumerV3",
          "name": "",
          "type": "address"
        }
      ],
      "stateMutability": "view",
      "type": "function"
    },
    {
      "inputs": [
        {
          "internalType": "uint256",
          "name": "amount",
          "type": "uint256"
        }
      ],
      "name": "repay",
      "outputs": [],
      "stateMutability": "payable",
      "type": "function"
    },
    {
      "inputs": [],
      "name": "stableToken",
      "outputs": [
        {
          "internalType": "contract StableToken",
          "name": "",
          "type": "address"
        }
      ],
      "stateMutability": "view",
      "type": "function"
    },
    {
      "inputs": [
        {
          "internalType": "address",
          "name": "",
          "type": "address"
        }
      ],
      "name": "startTime",
      "outputs": [
        {
          "internalType": "uint256",
          "name": "",
          "type": "uint256"
        }
      ],
      "stateMutability": "view",
      "type": "function"
    },
    {
      "inputs": [
        {
          "internalType": "address",
          "name": "",
          "type": "address"
        }
      ],
      "name": "supply",
      "outputs": [
        {
          "internalType": "uint256",
          "name": "",
          "type": "uint256"
        }
      ],
      "stateMutability": "view",
      "type": "function"
    },
    {
      "inputs": [],
      "name": "totalBorrows",
      "outputs": [
        {
          "internalType": "uint256",
          "name": "",
          "type": "uint256"
        }
      ],
      "stateMutability": "view",
      "type": "function"
    },
    {
      "inputs": [],
      "name": "totalDeposits",
      "outputs": [
        {
          "internalType": "uint256",
          "name": "",
          "type": "uint256"
        }
      ],
      "stateMutability": "view",
      "type": "function"
    },
    {
      "inputs": [
        {
          "internalType": "uint256",
          "name": "amount",
          "type": "uint256"
        }
      ],
      "name": "withdraw",
      "outputs": [],
      "stateMutability": "payable",
      "type": "function"
    }
  ],
  "bytecode": "0x608060405273f561df10e12feb4a879d6844e25c0d084c1158386000806101000a81548173ffffffffffffffffffffffffffffffffffffffff021916908373ffffffffffffffffffffffffffffffffffffffff16021790555060008054906101000a900473ffffffffffffffffffffffffffffffffffffffff16600160006101000a81548173ffffffffffffffffffffffffffffffffffffffff021916908373ffffffffffffffffffffffffffffffffffffffff16021790555073e6be3ae9c74fe5a4ff73d1efb4363e87e42e3e42600260006101000a81548173ffffffffffffffffffffffffffffffffffffffff021916908373ffffffffffffffffffffffffffffffffffffffff160217905550600260009054906101000a900473ffffffffffffffffffffffffffffffffffffffff16600360006101000a81548173ffffffffffffffffffffffffffffffffffffffff021916908373ffffffffffffffffffffffffffffffffffffffff16021790555034801561017d57600080fd5b506131148061018d6000396000f3fe6080604052600436106101b75760003560e01c80637d882097116100ec578063b9c3a04c1161008a578063e1ec3c6811610064578063e1ec3c681461061b578063e37f8a7e1461065a578063eeb97d3b14610685578063fe6bcd7c146106c2576101b7565b8063b9c3a04c1461059a578063c022215c146105c5578063d84549d7146105f0576101b7565b80639b56d6c9116100c65780639b56d6c9146104ed578063a9d75b2b1461052a578063b6b55f2514610555578063b8998bd014610571576101b7565b80637d8820971461045a5780637dc0d1d014610485578063812e06cc146104b0576101b7565b8063371fd8e61161015957806347bd37181161013357806347bd37181461038a5780634dab4dc0146103b55780636df1e2b8146103e05780636e1dc66e1461041d576101b7565b8063371fd8e6146103155780633e0b8b8f1461033157806343deeeb41461034d576101b7565b80631a86c899116101955780631a86c899146102615780631fd433aa1461028c5780632e1a7d4d146102c957806333e766e7146102e5576101b7565b806309c8b96a146101bc5780631751b558146101e757806319ae58f014610224575b600080fd5b3480156101c857600080fd5b506101d16106ff565b6040516101de91906122f8565b60405180910390f35b3480156101f357600080fd5b5061020e60048036038101906102099190612376565b610704565b60405161021b91906123bf565b60405180910390f35b34801561023057600080fd5b5061024b60048036038101906102469190612376565b610724565b60405161025891906122f8565b60405180910390f35b34801561026d57600080fd5b5061027661073c565b60405161028391906122f8565b60405180910390f35b34801561029857600080fd5b506102b360048036038101906102ae9190612376565b610741565b6040516102c091906122f8565b60405180910390f35b6102e360048036038101906102de9190612406565b61078a565b005b6102ff60048036038101906102fa919061245f565b610b52565b60405161030c91906122f8565b60405180910390f35b61032f600480360381019061032a9190612406565b611184565b005b61034b60048036038101906103469190612376565b61164d565b005b34801561035957600080fd5b50610374600480360381019061036f9190612376565b611acc565b60405161038191906122f8565b60405180910390f35b34801561039657600080fd5b5061039f611c93565b6040516103ac91906122f8565b60405180910390f35b3480156103c157600080fd5b506103ca611c99565b6040516103d791906122f8565b60405180910390f35b3480156103ec57600080fd5b5061040760048036038101906104029190612376565b611c9e565b60405161041491906122f8565b60405180910390f35b34801561042957600080fd5b50610444600480360381019061043f9190612376565b611ce7565b60405161045191906122f8565b60405180910390f35b34801561046657600080fd5b5061046f611cff565b60405161047c91906122f8565b60405180910390f35b34801561049157600080fd5b5061049a611d05565b6040516104a791906124fe565b60405180910390f35b3480156104bc57600080fd5b506104d760048036038101906104d29190612376565b611d2b565b6040516104e491906122f8565b60405180910390f35b3480156104f957600080fd5b50610514600480360381019061050f9190612376565b611d43565b60405161052191906122f8565b60405180910390f35b34801561053657600080fd5b5061053f611d8c565b60405161054c919061253a565b60405180910390f35b61056f600480360381019061056a9190612406565b611db2565b005b34801561057d57600080fd5b5061059860048036038101906105939190612555565b611f6b565b005b3480156105a657600080fd5b506105af611fdc565b6040516105bc91906122f8565b60405180910390f35b3480156105d157600080fd5b506105da611fe1565b6040516105e791906122f8565b60405180910390f35b3480156105fc57600080fd5b50610605611feb565b60405161061291906122f8565b60405180910390f35b34801561062757600080fd5b50610642600480360381019061063d9190612406565b612088565b604051610651939291906125a8565b60405180910390f35b34801561066657600080fd5b5061066f6120c2565b60405161067c91906122f8565b60405180910390f35b34801561069157600080fd5b506106ac60048036038101906106a79190612376565b6120cc565b6040516106b991906122f8565b60405180910390f35b3480156106ce57600080fd5b506106e960048036038101906106e49190612376565b6120e4565b6040516106f691906122f8565b60405180910390f35b600181565b600b6020528060005260406000206000915054906101000a900460ff1681565b60086020528060005260406000206000915090505481565b600a81565b6000600860008373ffffffffffffffffffffffffffffffffffffffff1673ffffffffffffffffffffffffffffffffffffffff168152602001908152602001600020549050919050565b600081116107cd576040517f08c379a00000000000000000000000000000000000000000000000000000000081526004016107c490612662565b60405180910390fd5b600860003373ffffffffffffffffffffffffffffffffffffffff1673ffffffffffffffffffffffffffffffffffffffff1681526020019081526020016000205481111561084f576040517f08c379a0000000000000000000000000000000000000000000000000000000008152600401610846906126ce565b60405180910390fd5b600a600760003373ffffffffffffffffffffffffffffffffffffffff1673ffffffffffffffffffffffffffffffffffffffff168152602001908152602001600020544261089c919061271d565b10156108dd576040517f08c379a00000000000000000000000000000000000000000000000000000000081526004016108d49061279d565b60405180910390fd5b60008190507fffffffffffffffffffffffffffffffffffffffffffffffffffffffffffffffff820361094c57600860003373ffffffffffffffffffffffffffffffffffffffff1673ffffffffffffffffffffffffffffffffffffffff1681526020019081526020016000205490505b60646002606461095c91906127bd565b8261096791906127f1565b6109719190612862565b90506109c581600860003373ffffffffffffffffffffffffffffffffffffffff1673ffffffffffffffffffffffffffffffffffffffff168152602001908152602001600020546122b390919063ffffffff16565b600860003373ffffffffffffffffffffffffffffffffffffffff1673ffffffffffffffffffffffffffffffffffffffff16815260200190815260200160002081905550610a1d816005546122b390919063ffffffff16565b60058190555047811115610a66576040517f08c379a0000000000000000000000000000000000000000000000000000000008152600401610a5d90612905565b60405180910390fd5b60003373ffffffffffffffffffffffffffffffffffffffff1682604051610a8c90612956565b60006040518083038185875af1925050503d8060008114610ac9576040519150601f19603f3d011682016040523d82523d6000602084013e610ace565b606091505b5050905080610b12576040517f08c379a0000000000000000000000000000000000000000000000000000000008152600401610b09906129b7565b60405180910390fd5b7ff279e6a1f5e320cca91135676d9cb6e44ca8a08c0b88342bcdb1144f6511b568338342604051610b45939291906129e6565b60405180910390a1505050565b6000808311610b96576040517f08c379a0000000000000000000000000000000000000000000000000000000008152600401610b8d90612a8f565b60405180910390fd5b81600b60003373ffffffffffffffffffffffffffffffffffffffff1673ffffffffffffffffffffffffffffffffffffffff16815260200190815260200160002060006101000a81548160ff021916908360ff160217905550600060048360ff1681548110610c0757610c06612aaf565b5b90600052602060002090600302016000015490506000600860003373ffffffffffffffffffffffffffffffffffffffff1673ffffffffffffffffffffffffffffffffffffffff1681526020019081526020016000205490506000610c69611feb565b905060006a52b7d2dcc80cd2e40000008284610c8591906127f1565b610c8f9190612862565b9050600060648583610ca191906127f1565b610cab9190612862565b905080881115610cf0576040517f08c379a0000000000000000000000000000000000000000000000000000000008152600401610ce790612b2a565b60405180910390fd5b60008584610cfe91906127f1565b6b204fce5e3e250261100000008a610d1691906127f1565b610d209190612862565b9050600160009054906101000a900473ffffffffffffffffffffffffffffffffffffffff1673ffffffffffffffffffffffffffffffffffffffff166370a08231306040518263ffffffff1660e01b8152600401610d7d9190612b4a565b602060405180830381865afa158015610d9a573d6000803e3d6000fd5b505050506040513d601f19601f82011682018060405250810190610dbe9190612b7a565b8910610dff576040517f08c379a0000000000000000000000000000000000000000000000000000000008152600401610df690612bf3565b60405180910390fd5b610e14816005546122b390919063ffffffff16565b600581905550610e6c81600860003373ffffffffffffffffffffffffffffffffffffffff1673ffffffffffffffffffffffffffffffffffffffff168152602001908152602001600020546122b390919063ffffffff16565b600860003373ffffffffffffffffffffffffffffffffffffffff1673ffffffffffffffffffffffffffffffffffffffff16815260200190815260200160002081905550610f0181600a60003373ffffffffffffffffffffffffffffffffffffffff1673ffffffffffffffffffffffffffffffffffffffff168152602001908152602001600020546122c990919063ffffffff16565b600a60003373ffffffffffffffffffffffffffffffffffffffff1673ffffffffffffffffffffffffffffffffffffffff16815260200190815260200160002081905550610f59896006546122c990919063ffffffff16565b600681905550610fb189600960003373ffffffffffffffffffffffffffffffffffffffff1673ffffffffffffffffffffffffffffffffffffffff168152602001908152602001600020546122c990919063ffffffff16565b600960003373ffffffffffffffffffffffffffffffffffffffff1673ffffffffffffffffffffffffffffffffffffffff16815260200190815260200160002081905550600160009054906101000a900473ffffffffffffffffffffffffffffffffffffffff1673ffffffffffffffffffffffffffffffffffffffff1663095ea7b3308b6040518363ffffffff1660e01b8152600401611051929190612c13565b6020604051808303816000875af1158015611070573d6000803e3d6000fd5b505050506040513d601f19601f820116820180604052508101906110949190612c74565b50600160009054906101000a900473ffffffffffffffffffffffffffffffffffffffff1673ffffffffffffffffffffffffffffffffffffffff166323b872dd30338c6040518463ffffffff1660e01b81526004016110f493929190612ca1565b6020604051808303816000875af1158015611113573d6000803e3d6000fd5b505050506040513d601f19601f820116820180604052508101906111379190612c74565b507fdfe6e48f4e9fbdd140e164d228a072b0a9ac6fd3d889bcaf8fe6dee92bfcd663338a8a4260405161116d9493929190612cd8565b60405180910390a181965050505050505092915050565b6000600b60003373ffffffffffffffffffffffffffffffffffffffff1673ffffffffffffffffffffffffffffffffffffffff16815260200190815260200160002060009054906101000a900460ff169050600060048260ff16815481106111ee576111ed612aaf565b5b90600052602060002090600302016002015490506000600960003373ffffffffffffffffffffffffffffffffffffffff1673ffffffffffffffffffffffffffffffffffffffff1681526020019081526020016000205411611284576040517f08c379a000000000000000000000000000000000000000000000000000000000815260040161127b90612d69565b60405180910390fd5b600083116112c7576040517f08c379a00000000000000000000000000000000000000000000000000000000081526004016112be90612dfb565b60405180910390fd5b60006112d2336120e4565b90506001811015611318576040517f08c379a000000000000000000000000000000000000000000000000000000000815260040161130f90612e67565b60405180910390fd5b6000606483606461132991906127bd565b8661133491906127f1565b61133e9190612862565b9050600160009054906101000a900473ffffffffffffffffffffffffffffffffffffffff1673ffffffffffffffffffffffffffffffffffffffff166323b872dd3330846040518463ffffffff1660e01b815260040161139f93929190612ca1565b6020604051808303816000875af11580156113be573d6000803e3d6000fd5b505050506040513d601f19601f820116820180604052508101906113e29190612c74565b5060006113ed611feb565b90506000816a52b7d2dcc80cd2e40000008861140991906127f1565b6114139190612862565b905060003373ffffffffffffffffffffffffffffffffffffffff168260405161143b90612956565b60006040518083038185875af1925050503d8060008114611478576040519150601f19603f3d011682016040523d82523d6000602084013e61147d565b606091505b50509050806114c1576040517f08c379a00000000000000000000000000000000000000000000000000000000081526004016114b8906129b7565b60405180910390fd5b61151388600960003373ffffffffffffffffffffffffffffffffffffffff1673ffffffffffffffffffffffffffffffffffffffff168152602001908152602001600020546122b390919063ffffffff16565b600960003373ffffffffffffffffffffffffffffffffffffffff1673ffffffffffffffffffffffffffffffffffffffff1681526020019081526020016000208190555061156b886006546122b390919063ffffffff16565b6006819055506115c382600a60003373ffffffffffffffffffffffffffffffffffffffff1673ffffffffffffffffffffffffffffffffffffffff168152602001908152602001600020546122b390919063ffffffff16565b600a60003373ffffffffffffffffffffffffffffffffffffffff1673ffffffffffffffffffffffffffffffffffffffff168152602001908152602001600020819055507f2fe77b1c99aca6b022b8efc6e3e8dd1b48b30748709339b65c50ef3263443e093385844260405161163b9493929190612e87565b60405180910390a15050505050505050565b600061165882611acc565b90506001811061169d576040517f08c379a000000000000000000000000000000000000000000000000000000000815260040161169490612f18565b60405180910390fd5b6000600b60008473ffffffffffffffffffffffffffffffffffffffff1673ffffffffffffffffffffffffffffffffffffffff16815260200190815260200160002060009054906101000a900460ff1690506000600a6005600960008773ffffffffffffffffffffffffffffffffffffffff1673ffffffffffffffffffffffffffffffffffffffff1681526020019081526020016000205461173e91906127f1565b6117489190612862565b90506000606460048460ff168154811061176557611764612aaf565b5b906000526020600020906003020160020154606461178391906127bd565b8361178e91906127f1565b6117989190612862565b9050600160009054906101000a900473ffffffffffffffffffffffffffffffffffffffff1673ffffffffffffffffffffffffffffffffffffffff166323b872dd3330846040518463ffffffff1660e01b81526004016117f993929190612ca1565b6020604051808303816000875af1158015611818573d6000803e3d6000fd5b505050506040513d601f19601f8201168201806040525081019061183c9190612c74565b506000600a6001600a61184f91906127bd565b8461185a91906127f1565b6118649190612862565b90506000642540be40009050806a52b7d2dcc80cd2e40000008361188891906127f1565b6118929190612862565b91506118e682600a60008a73ffffffffffffffffffffffffffffffffffffffff1673ffffffffffffffffffffffffffffffffffffffff168152602001908152602001600020546122b390919063ffffffff16565b600a60008973ffffffffffffffffffffffffffffffffffffffff1673ffffffffffffffffffffffffffffffffffffffff1681526020019081526020016000208190555061197b84600960008a73ffffffffffffffffffffffffffffffffffffffff1673ffffffffffffffffffffffffffffffffffffffff168152602001908152602001600020546122b390919063ffffffff16565b600960008973ffffffffffffffffffffffffffffffffffffffff1673ffffffffffffffffffffffffffffffffffffffff168152602001908152602001600020819055506119d3846006546122b390919063ffffffff16565b60068190555060003373ffffffffffffffffffffffffffffffffffffffff16836040516119ff90612956565b60006040518083038185875af1925050503d8060008114611a3c576040519150601f19603f3d011682016040523d82523d6000602084013e611a41565b606091505b5050905080611a85576040517f08c379a0000000000000000000000000000000000000000000000000000000008152600401611a7c906129b7565b60405180910390fd5b7ff3fa0eaee8f258c23b013654df25d1527f98a5c7ccd5e951dd77caca400ef97233898742604051611aba9493929190612f38565b60405180910390a15050505050505050565b600080600b60008473ffffffffffffffffffffffffffffffffffffffff1673ffffffffffffffffffffffffffffffffffffffff16815260200190815260200160002060009054906101000a900460ff1660ff169050600060048281548110611b3757611b36612aaf565b5b90600052602060002090600302016001015490506000600960008673ffffffffffffffffffffffffffffffffffffffff1673ffffffffffffffffffffffffffffffffffffffff1681526020019081526020016000205490508068056bc75e2d63100000611ba491906127f1565b82610640600a60008973ffffffffffffffffffffffffffffffffffffffff1673ffffffffffffffffffffffffffffffffffffffff16815260200190815260200160002054611bf291906127f1565b611bfc91906127f1565b611c069190612862565b600c60008773ffffffffffffffffffffffffffffffffffffffff1673ffffffffffffffffffffffffffffffffffffffff16815260200190815260200160002081905550600c60008673ffffffffffffffffffffffffffffffffffffffff1673ffffffffffffffffffffffffffffffffffffffff168152602001908152602001600020549350505050919050565b60065481565b600581565b6000600960008373ffffffffffffffffffffffffffffffffffffffff1673ffffffffffffffffffffffffffffffffffffffff168152602001908152602001600020549050919050565b60076020528060005260406000206000915090505481565b60055481565b600360009054906101000a900473ffffffffffffffffffffffffffffffffffffffff1681565b60096020528060005260406000206000915090505481565b6000600a60008373ffffffffffffffffffffffffffffffffffffffff1673ffffffffffffffffffffffffffffffffffffffff168152602001908152602001600020549050919050565b600160009054906101000a900473ffffffffffffffffffffffffffffffffffffffff1681565b60008111611df5576040517f08c379a0000000000000000000000000000000000000000000000000000000008152600401611dec90612fef565b60405180910390fd5b42600760003373ffffffffffffffffffffffffffffffffffffffff1673ffffffffffffffffffffffffffffffffffffffff16815260200190815260200160002081905550611e8b81600860003373ffffffffffffffffffffffffffffffffffffffff1673ffffffffffffffffffffffffffffffffffffffff168152602001908152602001600020546122c990919063ffffffff16565b600860003373ffffffffffffffffffffffffffffffffffffffff1673ffffffffffffffffffffffffffffffffffffffff16815260200190815260200160002081905550611ee3816005546122c990919063ffffffff16565b6005819055504760055414611f2d576040517f08c379a0000000000000000000000000000000000000000000000000000000008152600401611f249061305b565b60405180910390fd5b7f90890809c654f11d6e72a28fa60149770a0d11ec6c92319d6ceb2bb0a4ea1a15338242604051611f60939291906129e6565b60405180910390a150565b600060405180606001604052808581526020018481526020018381525090506004819080600181540180825580915050600190039060005260206000209060030201600090919091909150600082015181600001556020820151816001015560408201518160020155505050505050565b600281565b6000600554905090565b600080600360009054906101000a900473ffffffffffffffffffffffffffffffffffffffff1673ffffffffffffffffffffffffffffffffffffffff16638e15f4736040518163ffffffff1660e01b8152600401602060405180830381865afa15801561205b573d6000803e3d6000fd5b505050506040513d601f19601f8201168201806040525081019061207f91906130b1565b90508091505090565b6004818154811061209857600080fd5b90600052602060002090600302016000915090508060000154908060010154908060020154905083565b6000600654905090565b600a6020528060005260406000206000915090505481565b600080600b60008473ffffffffffffffffffffffffffffffffffffffff1673ffffffffffffffffffffffffffffffffffffffff16815260200190815260200160002060009054906101000a900460ff1660ff16905060006004828154811061214f5761214e612aaf565b5b90600052602060002090600302016001015490506000600960008673ffffffffffffffffffffffffffffffffffffffff1673ffffffffffffffffffffffffffffffffffffffff168152602001908152602001600020549050806b204fce5e3e250261100000006121bf91906127f1565b826121c8611feb565b600a60008973ffffffffffffffffffffffffffffffffffffffff1673ffffffffffffffffffffffffffffffffffffffff1681526020019081526020016000205461221291906127f1565b61221c91906127f1565b6122269190612862565b600c60008773ffffffffffffffffffffffffffffffffffffffff1673ffffffffffffffffffffffffffffffffffffffff16815260200190815260200160002081905550600c60008673ffffffffffffffffffffffffffffffffffffffff1673ffffffffffffffffffffffffffffffffffffffff168152602001908152602001600020549350505050919050565b600081836122c1919061271d565b905092915050565b600081836122d791906127bd565b905092915050565b6000819050919050565b6122f2816122df565b82525050565b600060208201905061230d60008301846122e9565b92915050565b600080fd5b600073ffffffffffffffffffffffffffffffffffffffff82169050919050565b600061234382612318565b9050919050565b61235381612338565b811461235e57600080fd5b50565b6000813590506123708161234a565b92915050565b60006020828403121561238c5761238b612313565b5b600061239a84828501612361565b91505092915050565b600060ff82169050919050565b6123b9816123a3565b82525050565b60006020820190506123d460008301846123b0565b92915050565b6123e3816122df565b81146123ee57600080fd5b50565b600081359050612400816123da565b92915050565b60006020828403121561241c5761241b612313565b5b600061242a848285016123f1565b91505092915050565b61243c816123a3565b811461244757600080fd5b50565b60008135905061245981612433565b92915050565b6000806040838503121561247657612475612313565b5b6000612484858286016123f1565b92505060206124958582860161244a565b9150509250929050565b6000819050919050565b60006124c46124bf6124ba84612318565b61249f565b612318565b9050919050565b60006124d6826124a9565b9050919050565b60006124e8826124cb565b9050919050565b6124f8816124dd565b82525050565b600060208201905061251360008301846124ef565b92915050565b6000612524826124cb565b9050919050565b61253481612519565b82525050565b600060208201905061254f600083018461252b565b92915050565b60008060006060848603121561256e5761256d612313565b5b600061257c868287016123f1565b935050602061258d868287016123f1565b925050604061259e868287016123f1565b9150509250925092565b60006060820190506125bd60008301866122e9565b6125ca60208301856122e9565b6125d760408301846122e9565b949350505050565b600082825260208201905092915050565b7f576974686472617720616d6f756e74206d75737420626520677265617465722060008201527f7468616e20300000000000000000000000000000000000000000000000000000602082015250565b600061264c6026836125df565b9150612657826125f0565b604082019050919050565b6000602082019050818103600083015261267b8161263f565b9050919050565b7f496e73756666696369656e742062616c616e6365000000000000000000000000600082015250565b60006126b86014836125df565b91506126c382612682565b602082019050919050565b600060208201905081810360008301526126e7816126ab565b9050919050565b7f4e487b7100000000000000000000000000000000000000000000000000000000600052601160045260246000fd5b6000612728826122df565b9150612733836122df565b925082820390508181111561274b5761274a6126ee565b5b92915050565b7f4e6f7420617661696c61626c6500000000000000000000000000000000000000600082015250565b6000612787600d836125df565b915061279282612751565b602082019050919050565b600060208201905081810360008301526127b68161277a565b9050919050565b60006127c8826122df565b91506127d3836122df565b92508282019050808211156127eb576127ea6126ee565b5b92915050565b60006127fc826122df565b9150612807836122df565b9250828202612815816122df565b9150828204841483151761282c5761282b6126ee565b5b5092915050565b7f4e487b7100000000000000000000000000000000000000000000000000000000600052601260045260246000fd5b600061286d826122df565b9150612878836122df565b92508261288857612887612833565b5b828204905092915050565b7f4e6f7420656e6f7567682045544820696e20706f6f6c20746f2077697468647260008201527f6177000000000000000000000000000000000000000000000000000000000000602082015250565b60006128ef6022836125df565b91506128fa82612893565b604082019050919050565b6000602082019050818103600083015261291e816128e2565b9050919050565b600081905092915050565b50565b6000612940600083612925565b915061294b82612930565b600082019050919050565b600061296182612933565b9150819050919050565b7f4661696c656420746f2073656e64204574686572200000000000000000000000600082015250565b60006129a16015836125df565b91506129ac8261296b565b602082019050919050565b600060208201905081810360008301526129d081612994565b9050919050565b6129e081612338565b82525050565b60006060820190506129fb60008301866129d7565b612a0860208301856122e9565b612a1560408301846122e9565b949350505050565b7f426f72726f7720616d6f756e74206d757374206265206772656174657220746860008201527f616e203000000000000000000000000000000000000000000000000000000000602082015250565b6000612a796024836125df565b9150612a8482612a1d565b604082019050919050565b60006020820190508181036000830152612aa881612a6c565b9050919050565b7f4e487b7100000000000000000000000000000000000000000000000000000000600052603260045260246000fd5b7f4465706f736974206e6f7420656e6f7567682045544820746f20626f72726f77600082015250565b6000612b146020836125df565b9150612b1f82612ade565b602082019050919050565b60006020820190508181036000830152612b4381612b07565b9050919050565b6000602082019050612b5f60008301846129d7565b92915050565b600081519050612b74816123da565b92915050565b600060208284031215612b9057612b8f612313565b5b6000612b9e84828501612b65565b91505092915050565b7f4e6f7420656e6f75676820737461626c6520746f6b656e000000000000000000600082015250565b6000612bdd6017836125df565b9150612be882612ba7565b602082019050919050565b60006020820190508181036000830152612c0c81612bd0565b9050919050565b6000604082019050612c2860008301856129d7565b612c3560208301846122e9565b9392505050565b60008115159050919050565b612c5181612c3c565b8114612c5c57600080fd5b50565b600081519050612c6e81612c48565b92915050565b600060208284031215612c8a57612c89612313565b5b6000612c9884828501612c5f565b91505092915050565b6000606082019050612cb660008301866129d7565b612cc360208301856129d7565b612cd060408301846122e9565b949350505050565b6000608082019050612ced60008301876129d7565b612cfa60208301866122e9565b612d0760408301856123b0565b612d1460608301846122e9565b95945050505050565b7f4e6f20626f72726f7720616d6f756e7420746f20726570617900000000000000600082015250565b6000612d536019836125df565b9150612d5e82612d1d565b602082019050919050565b60006020820190508181036000830152612d8281612d46565b9050919050565b7f526570617920616d6f756e74206d75737420626520677265617465722074686160008201527f6e20300000000000000000000000000000000000000000000000000000000000602082015250565b6000612de56023836125df565b9150612df082612d89565b604082019050919050565b60006020820190508181036000830152612e1481612dd8565b9050919050565b7f436f6c6c61746572616c732068617665206265656e206c697175696461746500600082015250565b6000612e51601f836125df565b9150612e5c82612e1b565b602082019050919050565b60006020820190508181036000830152612e8081612e44565b9050919050565b6000608082019050612e9c60008301876129d7565b612ea960208301866122e9565b612eb660408301856122e9565b612ec360608301846122e9565b95945050505050565b7f596f752063616e206e6f74206c69717569646174652074686973207573657200600082015250565b6000612f02601f836125df565b9150612f0d82612ecc565b602082019050919050565b60006020820190508181036000830152612f3181612ef5565b9050919050565b6000608082019050612f4d60008301876129d7565b612f5a60208301866129d7565b612f6760408301856122e9565b612f7460608301846122e9565b95945050505050565b7f4465706f73697420616d6f756e74206d7573742062652067726561746572207460008201527f68616e2030000000000000000000000000000000000000000000000000000000602082015250565b6000612fd96025836125df565b9150612fe482612f7d565b604082019050919050565b6000602082019050818103600083015261300881612fcc565b9050919050565b7f546f74616c206465706f73697420455448206973206e6f7420656e6f75676800600082015250565b6000613045601f836125df565b91506130508261300f565b602082019050919050565b6000602082019050818103600083015261307481613038565b9050919050565b6000819050919050565b61308e8161307b565b811461309957600080fd5b50565b6000815190506130ab81613085565b92915050565b6000602082840312156130c7576130c6612313565b5b60006130d58482850161309c565b9150509291505056fea26469706673582212200f2bbbbfe9d6f1d4079aaaa1e1b88b502dc8f0879e3edecb334854754197ee1d64736f6c63430008120033",
  "linkReferences": {},
  "deployedLinkReferences": {}
}